:020000040800F2
:10000000A8060020050100082F2100085B1D00083C
:100010002D210008090D0008B5220008000000008D
:100020000000000000000000000000003321000874
:100030000B0D0008000000003121000835210008E8
:100040001F0100081F0100081F0100081F01000810
:100050001F0100081F0100081F0100081F01000800
:100060001F0100081F0100081F0100081F010008F0
:100070001F0100081F0100081F0100081F010008E0
:100080001F0100081F0100081F0100081F010008D0
:100090001F0100081F0100081F0100081F010008C0
:1000A0001F0100081F0100081F0100081F010008B0
:1000B0001F0100081F0100081F0100081F010008A0
:1000C0001F0100081F0100081F0100081F01000890
:1000D0001F0100081F0100081F0100081F01000880
:1000E0001F0100081F0100081F010008DFF810D0E1
:1000F00000F016FC0048004769300008AFF30080AC
:10010000A80600200648804706480047FEE7FEE7AD
:10011000FEE7FEE7FEE7FEE7FEE7FEE7FEE7FEE7B7
:1001200097210008ED0000082DE9F0410024061B8E
:10013000254671F1000605DA01240027D0EB0700FF
:1001400067EB0101161E73F1000605DA0027D2EBFA
:100150000702012567EB030300F0B4FA86460E465A
:1001600017469C46AC4204D00025D0EB050E65EB4B
:10017000010624B10020D2EB000760EB030C7046AF
:1001800031463A466346BDE8F081202A04DB203A36
:1001900021FA02F00021704721FA02F3D040C2F1A7
:1001A00020029140084319467047D2B201E000F89E
:1001B000012B491EFBD270470022F6E710B513460B
:1001C0000A4604461946FFF7F0FF204610BD30B43A
:1001D00080EA010202F0004530F0004221F00040C8
:1001E00013D090B1C30DD40DC2F31601C0F31600A5
:1001F000E41A41F4000140F400027D34914201D33D
:10020000641C00E04900002C02DA30BC002070477A
:100210004FF400000023914201D3891A03434008A0
:100220004FEA4101F7D151B1914202D14FF0004163
:1002300005E002D24FF0010101E06FF0010103EB94
:10024000C450284430BC00F08FBA420005D0C0F33F
:10025000C7525242914201DC0020704700EBC1506E
:1002600070472DE9FE4F804681EA0300C00F0C461F
:10027000009021F0004123F00045B8EB0200A941B5
:1002800005D24046214690461C460B46024623F0C6
:100290000040104347D0270DC7F30A00C3F30A51AB
:1002A0000290401A019040286BDAC3F3130040F427
:1002B000801B0098924620B10023D2EB030A63EB27
:1002C0000B0B01985946C0F14002504600F02BFA42
:1002D00006460D4650465946019A00F033FA10EB97
:1002E00008006141002487EA115284EAE7731A4347
:1002F00040D0009A62B3019A012A4FEA075215DCF6
:10030000001B61EB02014FF0004202EA0752CDE907
:100310000042001C41F5801132462B4600F06AFA7B
:1003200003B0BDE8F08F40462146F9E7001B61EBC2
:100330000201001C41F5801300185B412018A2F552
:10034000001747EB030140EAD570B6196D4111E083
:100350006D084FEA360645EAC0754FEA0752001BA2
:1003600061EB0201001C41F5801149084FEA3000A1
:100370000019514132462B4603B0BDE8F04F00F062
:100380002ABA0098012240000023D0EB020263EB5E
:10039000E073009821464FEAE074B8EB000061EB8F
:1003A0000401E9E783F000435BE781F0004158E78F
:1003B0002DE9FE4F81EA030404F0004421F00041DE
:1003C00000944FF0000B23F0004350EA01045ED08C
:1003D00052EA03045BD0C3F30A54C1F30A552C4418
:1003E000A4F2F3340194A0FB0254C1F3130141F4CD
:1003F0008011C3F3130343F4801301FB024400FB99
:10040000034E840A970A44EA815447EA8357A4FBBF
:10041000076802958D0A05FB07854FEA932C04FBBC
:100420000C542705029D4FEA065847EA1637B5EBEC
:1004300008056EEB070C870E920E47EA811742EA19
:100440008312A7FB0201B6EB0B0164EB00042B0D3A
:1004500043EA0C335E1844EB1C50DA465146E7FB86
:100460000201C5F313044FEA0B3343EA14534FEA76
:100470000432019C43EA0603A4F10C040294009C9C
:10048000CDE900B400F0B6F903B0BDE8F08F00206C
:100490000146F9E72DE9F04D81EA030404F0004B31
:1004A00021F0004514464FF0000A23F0004150EAC5
:1004B000050220D054EA01021DD0C5F30A570246B6
:1004C000C5F31303C1F31300C1F30A5640F48015BA
:1004D00043F48013A7EB0608101BD64608F2FD383C
:1004E00073EB050002D308F1010801E092185B41AB
:1004F000B8F1000F03DA00200146BDE8F08D0020BE
:100500004FF48011064684460EE0171B73EB050777
:1005100005D3121B63EB050306434CEA010C4908A3
:100520004FEA300092185B4150EA0107EDD152EAE0
:10053000030012D082EA040083EA0501084305D0D3
:10054000101BAB4106D20122002306E000224FF02F
:10055000004302E06FF0010253101AEB06004CEB6F
:10056000085110EB0A0041EB0B01BDE8F04D00F023
:1005700032B9C10F80EAE0700844CA07962300210F
:1005800000F0FBB896230022114600F0F6B80EB535
:10059000C10F80EAE0700844CA07002140F23343EB
:1005A0008DE80E000A460B4600F024F903B000BDAA
:1005B0000EB540F2334102910021CDE900110A4607
:1005C0000B4600F017F903B000BD70B5C1F30A5235
:1005D00001F000450024C1F3130140F2FF3341F460
:1005E00080119A4201DA002070BD40F233439A42F2
:1005F000A2F2334203DC5242FFF7C7FD00E0904015
:100600002C43F1D0404270BDC1F30A5210B5C1F382
:10061000130140F2FF3341F480119A4201DA0020C5
:1006200010BD40F233439A42A2F2334203DC5242FD
:10063000FFF7ABFD10BD904010BD00F0004230F060
:1006400000400AD0C10D01F56071C0F3160042EA06
:100650000151C2084007114370470020014670470E
:1006600001F0004330B421F0004150EA010206D00D
:100670000A0DA2F56072C1F31301002A02DC30BC3E
:1006800000207047440F44EAC104C100E01830BCA8
:1006900000EBC25000F068B830B50B4601460020B0
:1006A0002022012409E021FA02F59D4205D303FA34
:1006B00002F5491B04FA02F52844151EA2F10102B5
:1006C000F1DC30BD2DE9F05F0546002092469B46E7
:1006D00088460646814640241BE028464146474658
:1006E0002246FFF752FD53465A46C01A914110D395
:1006F00011461846224600F016F82D1A67EB01083D
:100700004F4622460120002100F00DF817EB0009AA
:100710004E41201EA4F10104DFDC484631462A4642
:100720004346BDE8F09F202A04DB203A00FA02F19C
:10073000002070479140C2F1200320FA03F31943CF
:1007400090407047202A06DBCB17203A41FA02F08E
:1007500043EAE07306E041FA02F3D040C2F120021E
:1007600091400843194670470029A8BF7047401CB4
:10077000490008BF20F00100704710B4B0FA80FCB7
:1007800000FA0CF050EA010404BF10BC704749B1F4
:10079000CCF1200421FA04F411FA0CF118BF012164
:1007A00021430843A3EB0C01CB1D4FEA00614FEA44
:1007B000102042BF002010BC704700EBC350104413
:1007C0000029A4BF10BC7047401C490008BF20F09E
:1007D000010010BC704710B5141E73F1000408DA54
:1007E000401C41F1000192185B411A4301D120F0F5
:1007F000010010BD2DE9F04D92469B4611B1B1FAB2
:1008000081F202E0B0FA80F220329046FFF78BFFCF
:1008100004460F4640EA0A0041EA0B0153465A4695
:10082000084313D0114653EA010019D0C8F1400221
:100830005046FFF7AAFC05460E465046594642462A
:10084000FFF771FF084305D0012004E02046394638
:10085000BDE8F08D0020054346EAE0762C4337439F
:100860000A986305E40AA0EB08000022FD0A44EAA6
:1008700047540A3002D500200146E9E70105101966
:100880006941DDE9084500196941BDE8F04DA2E77D
:1008900070B521F0004303430CD0C1F30A55002486
:1008A000D5EB040564EB0403D617AD1AB34102DBA4
:1008B0000020014670BD201841EB025170BDC1F30C
:1008C0000A52C1F3130140F2FF3341F480119A42FE
:1008D00002DA00200146704740F233439A42A2F206
:1008E000334202DC5242FFF750BCFFF71CBF00004E
:1008F00030B5041E71F1000404DB4FF000444042A7
:1009000064EB0101141E73F1000405DB1C464FF07B
:100910000043524263EB0403994208BF904230BD4A
:10092000064C074D06E0E06840F0010394E807003C
:1009300098471034AC42F6D3FFF7DCFB4041000887
:10094000604100082DE9F04D00231A461B1A8A4128
:1009500003DB00200146BDE8F08DC1F30A52C1F36C
:10096000130141F480154FF0000BD10702D100189C
:100970006D41521E0027044640F2FF11384601EB3C
:10098000620A3E468046024600204FF48011FFF77F
:10099000FCFBC2197141BB1846EB0100B4EB030C20
:1009A00075EB000C04D3E41A65EB000517460E4600
:1009B000241908F101006D4180463428E3DDF9195E
:1009C00046EB0600091BA84103D24FF0FF32134645
:1009D00001E0002213461BEB070046EB0A51BDE87D
:1009E000F04DFFF7F8BE000010B500F025F80C48F8
:1009F000006CFFF7BEFD0B49FFF7E9FBFFF71DFE9B
:100A0000094A0A4B02F0BAFC0022094BFFF7CDFC61
:100A10000022084BFFF7CCFCBDE81040FFF720BEDA
:100A20003000002080E6C547E445D7CC955BC83F41
:100A30000000F03F40A5E5402DE9F05F824600F060
:100A400065F97D4C8146E0612089FFF7B1FD002208
:100A50007A4BFFF71FFD06460D466189A069401AD3
:100A6000FFF795FD32462B46FFF7A2FCFFF7ADFDE1
:100A70000546B4F914002844FFF789FD06460F46E1
:100A8000B4F91200FFF783FD00226D4BFFF790FCD5
:100A900032463B46FFF7FEFCFFF797FD0544256312
:100AA000A5F57A6505FB05F00746A563FFF76FFD21
:100AB0000022644BFFF7EEFC06468846B4F90E00B0
:100AC000FFF765FD32464346FFF772FC00225C4BA0
:100AD000FFF7E0FCFFF779FD0646B4F90200684332
:100AE000FFF755FD0022564BFFF7D4FCFFF76DFDD5
:100AF000B4F90010304400EB810000FA0AF0801CC9
:100B0000C11700EB91708210E262B4F904009046C4
:100B10006843FFF73CFD00224B4BFFF7BBFCFFF7A0
:100B200054FD06462062DFF824B13846FFF72FFD5A
:100B30000022444BFFF7AEFC07460D46B4F90C000B
:100B4000FFF725FD3A462B46FFF732FC404D0022C9
:100B50002B46FFF79FFCFFF738FD60623044801C96
:100B6000FFF715FD00223B4BFFF794FCFFF72DFD2F
:100B70000146A062E08801F500414843FFF718FDF7
:100B800000222E4BFFF786FCFFF73EFD4CF2503360
:100B9000A9EB080123FA0AF35943E1636063B1F159
:100BA000004F224603D24900B1FBF0F002E0B1FB56
:100BB000F0F04000204E1064306C8246FFF7E7FCF6
:100BC000894604460022244BFFF764FC02460B468C
:100BD000FFF7EEFBFFF7F9FC40F6DE31D84648435D
:100BE000FFF7D5FC00222F462B46FFF753FCFFF7FB
:100BF000ECFC1A49054630620AFB01F0FFF7C7FC1E
:100C000000223B46FFF746FCFFF7DFFC70622844FA
:100C100000F6CF60FFF7BBFC00224346FFF73AFC2B
:100C200022464B46FFF71DFBFFF7CFFC3064BDE8C3
:100C3000F05FFFF79EBC0000300000200000E040A5
:100C40000000A0400000B0400000C0400000304064
:100C50000000F040000010400000704043E3FFFF40
:100C60002DE9F04100F096F8214C0646A06120895C
:100C7000FFF79EFC00221F4BFFF70CFC0746608924
:100C80000D46301AFFF783FC3A462B46FFF790FBE0
:100C9000FFF79BFC05462062B4F914002844FFF7D7
:100CA00076FC06460F46B4F91200FFF770FC0022EE
:100CB000114BFFF77DFB32463B46FFF7EBFBFFF79F
:100CC00084FC6062284420630830FFF760FC002247
:100CD0000A4BFFF7DFFBFFF778FC6064FFF757FC78
:100CE0000022074BFFF7D6FBBDE8F041FFF7B8BC89
:100CF000300000200000E0400000A0400000304034
:100D00000000244003F07EB8FEE7704730B585B0A0
:100D10000446342000EB84108DF81000002003906E
:100D2000012004A9CDE900104FF47A750346F4229E
:100D30000295EE21164800F04FFB34B1012C06D08D
:100D4000022C21D0032C05D120E0052000E0082052
:100D500000F04EF8032003A9CDE900100123F6228C
:100D60000295EE210A4800F00FFA9DF80C009DF85C
:100D70000D10000400EB01209DF80E1005B0084492
:100D8000C4F10801C84030BD0E20E1E71A20DFE7BA
:100D90008C01002010B586B02E208DF810000020A8
:100DA0000390012004A9CDE900104FF47A740346A2
:100DB000F4220294EE210D4800F00EFB052000F015
:100DC00017F8022003A9CDE900100123F6220294AE
:100DD000EE21064800F0D8F99DF80D009DF80C10A2
:100DE00006B000EB012080B210BD00008C01002095
:100DF00070B5044600F0FEF80546601C02D00448B9
:100E00000078044400F0F6F8401BA042FAD370BD0D
:100E1000780000202DE9F84FDFF8B891002409F19F
:100E2000040A0AF1040B23460F270BF1040EC9E054
:100E30000125A5402A40AA427DD1674ED1F804C0C1
:100E4000ACEB0608B44532D014DCBCF1030F3AD049
:100E500009DCBCF1000F2AD0BCF1010F1CD0BCF1A1
:100E6000020F31D11DE0BCF1110F17D0BCF1120FF0
:100E70002AD119E0B8F5881F19D006DCB8F5803FF3
:100E800015D0B8F5801F1FD111E0B8F5001F0ED0A6
:100E9000B8F5041F18D10AE0CB6815E0CB681B1D1C
:100EA00012E0CB6808330FE0CB680C330CE08B68A2
:100EB0002BB1012B4FF0080303D0456104E004235C
:100EC00002E0056100E00023FF2A01D8064601E0A8
:100ED00000F104064FEA840501D9A5F12005D6F8F2
:100EE000008007FA05FC28EA0C0803FA05F548EA31
:100EF0000508C6F800804D68ED0062D5374DAE6933
:100F000046F00106AE61AD6924F0030605F0010567
:100F10000095334D06EB050CDCF80850A607360F9C
:100F200007FA06F825EA0805DFF8B880404503D13E
:100F30004FF0000817E044E0DFF8AC80404502D1F4
:100F40004FF001080FE0DFF8A480404502D14FF0D8
:100F5000020808E0DFF89880404502D14FF003080E
:100F600001E04FF0040808FA06F848EA0508CCF852
:100F700008804D68D9F80060ED034D4601D5164351
:100F800000E096432E604D68DAF80060AD035546E8
:100F900001D5164300E096432E604D68DBF80060F3
:100FA000ED025D4601D5164300E096432E604D6884
:100FB000DEF80060AD02754601D5164300E09643A9
:100FC0002E60641C0D682A46E5407FF431AFBDE811
:100FD000F88F0000000401400000111000100240D2
:100FE0000000014000080140000C014000100140D9
:100FF000001401400148806870470000780000201C
:1010000070B5040025D094F83D00002520B984F87F
:101010003C50204600F078FA242084F83D002068F7
:10102000016821F0010101602068016841F400417C
:1010300001602068016821F40041016000F0D0FBEC
:101040004D4A6168914201D84C4900E04C498842C0
:1010500001D2012070BD4B492368B0FBF1F15E68FD
:1010600026F03F060E435E606368934206D94FF454
:10107000967359434FF47A73B1FBF3F12368491C1B
:101080001E6A26F03F06314319626168914210D80A
:101090004900401EB0FBF1F2521CC2F30B02042ABD
:1010A00001D2042022E0B0FBF1F0401CC0F30B00A1
:1010B0001CE0A268F2B301EBC10303EB0116431E6F
:1010C000B3FBF6F35B1C43F480431B0549D092B39A
:1010D00001EBC10202EB0111401EB0FBF1F0401C1C
:1010E000C0F30B0040F4804040F400402168CA691E
:1010F0004CF6FF739A431043C861D4E907100143CB
:101100002068026822F0C00211430160D4E90301A3
:1011100001432068826848F2FF339A43114381609B
:10112000D4E9050108432168CA6822F0FF02104390
:10113000C86001E00EE016E02068016841F001019E
:1011400001602564202084F83D00256384F83E502A
:10115000002070BD01EB4106431EB3FBF6F35B1CA0
:10116000B3E70120C2E701EB4101401EB0FBF1F003
:10117000401CC0F30B00B7E7A086010080841E006E
:1011800000093D0040420F002DE9FF4F83B00025CC
:10119000DDE910799A4693460446DDF848800095CB
:1011A000FFF728FF064694F83D0020287CD119233C
:1011B000012285492046009600F0E0FE0028F5D186
:1011C00094F83C0001286FD0012084F83C0020688E
:1011D0000168C90703D1016841F00101016020687D
:1011E000016821F400610160222084F83D00402064
:1011F00084F83E0025646762A4F82A90608D2085FB
:101200007248E062CDE9008653465A46204604996A
:1012100000F0BCFD00287DD1208DDFF8B49120279F
:1012200068B1012814D00228206801681ED041F45A
:10123000806101602068416980690090B6E02068A3
:10124000416981690091016841F400710160ADE07C
:101250002068016821F48061016072B620684169EC
:1012600081690091016841F400710AE041F4006174
:10127000016072B62068416981690091016821F4BA
:101280008061016062B691E0032868D801280CD023
:10129000022843464FF000024946204600960FD0F0
:1012A00000F06CFEB0BB10E08BE0324641462046B9
:1012B00000F0E3FE70BB20680069616A08706CE0B2
:1012C00000F05CFE30BB72B634E02068016821F4A7
:1012D0008061016072B620680069616A0870606AA6
:1012E000401C6062208D401E2085608D401E608500
:1012F000384846F2A8110068B0FBF1F0C0EBC0001E
:1013000000EB80000090401E009008D020684069EB
:10131000C04300E029E040070CD50098F3E744F80B
:10132000305F6773A573206940F02000206162B6CA
:1013300025731AE02068016841F40071016020689B
:101340000069616A0870606A401C6062218D491EF4
:101350002185618D491E618562B621681BE0324698
:101360004146204600F089FE18B1012007B0BDE8D3
:10137000F08F20680069616A0870606A401C6062D2
:10138000218D491E2185618D491E618521684A692B
:10139000D24352070AD409690170606A401C606236
:1013A000208D401E2085608D401E6085208D002888
:1013B0007FF46AAF84F83D7084F83E5084F83C5066
:1013C000D4E70220D2E70000020010000000FFFF77
:1013D00004000100840000202DE9FF4F83B09A46ED
:1013E000DDE9119793460446DDF84080FFF702FEE1
:1013F000054694F83D0020287FD119230122404959
:101400002046009500F0BAFD002876D194F83C0003
:10141000012872D0012084F83C0020680168C907C7
:1014200003D1016841F0010101602068016821F4E5
:1014300000610160212084F83D00402084F83E00D6
:1014400000262664C4F82480A4F82A90608D2085A4
:101450002C48E062CDE9007553465A46204604996F
:1014600000F012FD70B930E02A463946204600F0FF
:1014700037FE58B1206C042804D12068016841F47B
:1014800000710160012007B0BDE8F08F606A21683B
:1014900000780861606A401C6062218D491E89B233
:1014A0002185628D521E628522685369DB435B078A
:1014B0000BD469B100781061606A401C6062208DB5
:1014C000401E2085608D401E6085208D0028CBD178
:1014D0002A463946204600F02BFD0028CAD154F890
:1014E0003D0B016841F400710160202004F81E09E1
:1014F000E67766770020C6E7FFE70220C3E7000033
:10150000020010000000FFFF30B585B000210091FF
:101510000191029103911E4D03681E4C122103227A
:101520001D48AB4216D1A36943F00803A361A36928
:10153000039203F008030493C023CDE90031694608
:10154000FFF768FCE06940F40010E061E06900F436
:10155000001019E0114DAB4217D1A36943F0080305
:10156000A361A369039203F0080304934FF440635B
:10157000CDE900316946FFF74DFCE06940F4800099
:10158000E061E06900F48000049005B030BD000027
:101590000054004000100240000C01400058004080
:1015A0000248816802781144816070477800002009
:1015B000074810B5016841F010010160032000F0F8
:1015C00067F8002000F006F800F024F8002010BDB5
:1015D0000020024070B50D4D04464FF47A71287812
:1015E000B1FBF0F00A490968B1FBF0F000F0DEFA57
:1015F00048B9102C07D200222146501E00F028F8CE
:1016000000206C6070BD012070BD000078000020DB
:10161000840000200C4808B5816941F00101816116
:10162000816901F001010091C16941F08051C161FE
:10163000C06900F0805000900448416821F0E061EA
:1016400041F00071416008BD0010024000000140FF
:10165000F0B40E4B1B680C46C3F30223C3F107051D
:10166000042D00D90425191D072901D2002300E00B
:10167000DB1E012606FA05F1491E214099409E40D5
:10168000761E16403143F0BC00F03EBE0CED00E08B
:10169000064900F0070208684FF6FF03184040EAC9
:1016A0000220034A10430860704700000CED00E080
:1016B0000000FA052DE9F0470F46050061D0434EC2
:1016C000306800F00700B84209D2306820F0070007
:1016D00038433060306800F00700B84251D12868C4
:1016E0003B4C810712D5400703D5606840F4E060A9
:1016F00060602878000703D5606840F4605060603F
:101700006068A96820F0F000084360602878C0078E
:1017100028D06868012810D02168022810D08907D5
:1017200000292EDA616821F0030101436160FFF7AF
:1017300061FC804641F288390DE021688903EFE7BA
:101740008901EDE7FFF756FCA0EB0801494502D9F6
:101750000320BDE8F0876068696800F00C00B0EB1A
:10176000810FEFD1306800F00700B8420BD9306824
:1017700020F0070038433060306800F00700B842BE
:1017800001D00120E5E72878400705D56068E968C1
:1017900020F4E060084360602878000706D56068A0
:1017A000296920F4605040EAC100606000F038F818
:1017B0006168084AC1F30311515CC84006490860DA
:1017C00006480068FFF706FF0020C2E7002002403D
:1017D00000100240E43F0008840000207C0000204C
:1017E0000448054900684968044AC1F30221515C74
:1017F000C84070478400002000100240F43F0008F9
:101800000448054900684968044AC1F3C221515C93
:10181000C84070478400002000100240F43F0008D8
:1018200012A185B00FC98DE80F0014A0144A0068FA
:1018300004905168134801F00C03042B10D0082BBE
:101840000ED1C1F38343C9031DF803000AD55168C3
:1018500004AAC1F34041515C0A4A5043B0FBF1F085
:1018600005B0704708494843FAE700000203040541
:10187000060708090A0B0C0D0E0F101001020000DC
:101880000010024000127A0000093D002DE9F84FD7
:10189000040070D02078C04DC00749D06868C0F3FC
:1018A0008100012807D06868C0F38100022809D1AF
:1018B0006868C00306D52868800339D560680028A9
:1018C000E7D035E06068B0F5803F0BD010B1B0F5DF
:1018D000A02F11D0286820F480302860286820F4D8
:1018E000802002E0286840F480302860606890B171
:1018F000FFF780FB06460AE0286840F48020286055
:10190000F0E700BFFFF776FB801B642873D82868D8
:101910008003F7D50CE0FFF76DFB064605E000BF3E
:10192000FFF768FB801B6428F0D828688003F7D491
:1019300020789A4E80074FF001094FF0000839D502
:10194000686810F00C0F07D06868C0F381000228A7
:1019500009D16868C00306D42868800714D52069B7
:10196000012808D110E02069B0B1C6F80090FFF757
:1019700041FB074605E00AE1FFF73CFBC01B0228DC
:10198000C4D828688007F7D52868616920F0F80076
:1019900040EAC10028600DE0C6F80080FFF72AFB8E
:1019A000074604E0FFF726FBC01B022823D828685F
:1019B0008007F7D4207800072CD57948A169D9B1E0
:1019C000C0F80090FFF716FB074604E0FFF712FB94
:1019D000C01B02280FD8686A8007F7D571484FF4FA
:1019E000FA510068B0FBF1F0009000BF0098411E72
:1019F0000091FAD20EE080E0C0F80080FFF7FAFA1A
:101A0000074604E0FFF7F6FAC01B022875D8686A9B
:101A10008007F7D42078400760D5E8690027C00028
:101A200008D4E86940F08050E861E869012700F0D7
:101A3000805000905C480168C90513D40168834652
:101A400041F480710160FFF7D5FA824606E000BFDD
:101A5000FFF7D0FAA0EB0A0064284ED8DBF80000AC
:101A6000C005F5D5E06801280AD008B1052813D0D3
:101A7000286A20F001002862286A20F0040002E0B1
:101A8000286A40F001002862E06841F2883B98B182
:101A9000FFF7B0FA82460BE0286A40F004002862A3
:101AA000EEE700BFFFF7A6FAA0EB0A0159455AD8A6
:101AB000286A8007F6D50CE0FFF79CFA824605E01D
:101AC000FFF798FAA0EB0A0159454CD8286A80071D
:101AD000F6D41FB1E86920F08050E861E06988B36E
:101AE0006968C1F38101022944D00228C6F86080E8
:101AF00004D0FFF77FFA044638E034E0FFF77AFAC3
:101B0000074604E0FFF776FAC01B02282BD82868A6
:101B10008001F7D4206AB0F5803F05D16868A168DC
:101B200020F4003008436860D4E90801084369687C
:101B300021F4741108436860C6F86090FFF75AFA00
:101B4000044606E025E000BFFFF754FA001B022818
:101B500009D828688001F7D51BE000BFFFF74AFAD3
:101B6000001B022802D90320BDE8F88F28688001F5
:101B7000F4D40EE00128F7D06868226A00F48031BE
:101B8000914204D1616A00F47010884201D00120B2
:101B9000EAE70020E8E700000010024000004242AF
:101BA00080044242840000200070004010B5401EB6
:101BB000B0F1807F01D3012010BD4FF0E0246061BF
:101BC0000F21601700F0A0FB0020A061072020611A
:101BD000002010BD70B5040004D094F83900002531
:101BE00010B106E0012070BD84F83850204600F0A6
:101BF00023F8242084F839002068C16821F40051BA
:101C0000C160204600F0C8FA2068016921F49041C3
:101C100001612068416921F02A0141612068C168A1
:101C200041F40051C160E563202084F8390084F854
:101C30003A00002070BD000030B585B0002400944B
:101C400001940294039400681449884224D11448F2
:101C5000816941F480418161816901F4804104918D
:101C6000816941F00401816180690E4D00F004003A
:101C700004904FF400700090022001900320039024
:101C800069462846FFF7C6F82815CDE900046946DD
:101C900028460294FFF7BEF805B030BD0038014079
:101CA00000100240000801402DE9F843044690F876
:101CB00039001F4616460D4620284CD1C5B1BEB18D
:101CC00094F83800012846D0012084F838004FF0FD
:101CD0000008C4F83C80212084F83900FFF78AF915
:101CE000A6848146E684A068B0F5805F03D004E056
:101CF0000120BDE8F883206928B12E465FF0000579
:101D000084F838800EE00026FAE78021204600F0B3
:101D10009FFAA0B9AEB116F8010B21684860E08CBB
:101D2000401EE084E08C4B464FF0000200970028F4
:101D3000EBD14FF04001204600F08AFA30B1032089
:101D4000D7E735F8020BC0F30800E6E7202084F857
:101D500039000020CDE70220CBE7FEE701684A69A1
:101D6000D24352050FD46FF480624A61002140F8DB
:101D7000301F202242738173026942F00402026123
:101D80000173012070470020704700002DE9F84FD3
:101D90000446006889460B9D01689846174641F441
:101DA000806101602068016841F4807101600095E4
:101DB0004FF0011B0022594620460A9B00F0DEF836
:101DC0004FF4007A40B120680068C00501D5C4F81E
:101DD00040A00320BDE8F88F216809F0FE000861EB
:101DE0002B46284920460A9A00F0FCF8F0BB2068F0
:101DF0004169806900902A4620460A9900F070F9EE
:101E000040B1206C04283AD12068016841F4007187
:101E1000016034E0FEB2B8F1010F09D02168380A40
:101E200008612A4620460A9900F05AF90028E8D1AC
:101E3000206806612A4620460A9900F051F90028D8
:101E4000DFD12068016841F48071016000950022B3
:101E5000594620460A9B00F091F80028B3D121682A
:101E600009F0FF0040F00100086100E007E02B46A8
:101E7000044920460A9A00F0B5F80028AAD00120AB
:101E8000A8E70000020001002DE9F84304460068BD
:101E90000D46DDE9089701689846164641F48071C1
:101EA00001604B4600224FF001112046009700F0E0
:101EB00065F848B120680068C00502D54FF400708D
:101EC00020640320BDE8F883216805F0FE00086166
:101ED0003B464A461549204600F084F888B92068F8
:101EE0004169806900903A464946204600F0F8F87A
:101EF00048B1206C042804D12068016841F40071C5
:101F000001600120DEE7F5B2B8F1010F09D02168C8
:101F1000300A08613A464946204600F0E1F80028B8
:101F2000E7D1206805610020CCE700000200010035
:101F300070B516460D4604460DE02046FFF70EFF2D
:101F400008B1012070BD681C05D0FFF753F8801B55
:101F5000A84207D835B120684069C0434007ECD497
:101F6000002070BD002044F8300F20216173A07361
:101F7000216941F0200121612073E2E72DE9F0475A
:101F80001E4690460D460446C1F30747DDF82090F3
:101F900008E0701C06D0FFF72DF8A0EB0900B04256
:101FA0000FD876B12068012F18D0806925EA00008B
:101FB0000004000C14D000214145EAD00020BDE807
:101FC000F087002044F8300F20216173A07321694D
:101FD00041F02001216120730120F0E74069E5E72D
:101FE0000121E9E72DE9F0479A4691460E4604465D
:101FF00000254FF02008C1F3074725E0206840691D
:10200000C043400514D42068016841F400710160A8
:1020100021686FF480604861256384F83D8084F80E
:102020003E50206C40F00400206484F83C501FE0D7
:10203000B9F1FF3F08D0FEF7DDFFA0EB0A014945EB
:102040000CD8B9F1000F09D02068012F13D0806996
:1020500026EA00000004000C0BD0CFE744F8305F04
:1020600084F80D80A573206940F02000206125735D
:102070000120BDE8F0874069EAE72DE9F04100253D
:1020800090460E460446202717E04069C043C0062C
:102090000CD454F8301B6FF01000486144F810590C
:1020A0006777A577206A2062257717E0FEF7A2FF01
:1020B000A0EB0800B04208D83EB120684169C9438E
:1020C0004906E2D40020BDE8F08144F8305F677330
:1020D000A573206940F02000206125730120F2E7FC
:1020E00070B516460D4604460DE02046FFF736FE55
:1020F00008B1012070BD681C05D0FEF77BFF801B76
:10210000A84207D835B120684069C0430006ECD426
:10211000002070BD002044F8300F20216173A073AF
:10212000216941F0200121612073E2E7FEE7FEE72B
:1021300070477047FFF734BA30B58FB02821684632
:10214000FEF73AF814210AA8FEF736F80121080430
:10215000CDE900100024029402250491CDE9075036
:102160004FF4E01009906846FFF790FB08B172B693
:10217000FEE70F20CDE90A054FF48060CDE90C4061
:1021800002210AA80E94FFF795FA002801D072B632
:10219000FEE70FB030BD704770B5044600680169B6
:1021A000E26821F44051114301612169A0680843AC
:1021B000616908432168CA6841F20C639A4302438B
:1021C000CA6020684169A26921F4407111434161EC
:1021D0001E492068884202D1FFF712FB01E0FFF799
:1021E000FFFA00EBC00101EB00126068642180007F
:1021F000B2FBF0F3B3FBF1F36FF018067343B2FBDD
:10220000F0F5B2FBF0F605EB8305322303EB051581
:10221000B5FBF1F5B6FBF1F605F0F00505EB06159B
:10222000B2FBF0F6B2FBF0F0B0FBF1F06FF0180289
:10223000504306EB800003EB0010B0FBF1F0216887
:1022400000F00F002844886070BD00000038014095
:102250002DE9F041984617460E460446069D1DE0BE
:10226000681C1BD02DB1FEF7C5FEA0EB0800A842EC
:1022700014D92068C16821F4D071C1602068416917
:1022800021F001014161202084F8390084F83A00EE
:10229000002084F838000320BDE8F0812068006841
:1022A00036EA000004D00020B842D9D00020F3E77D
:1022B0000120F9E7FEE700000FB4084B10B504A9B0
:1022C00002AA039800F07EF9044602A9002000F05B
:1022D000FCFC204610BC5DF814FB0000CB2C000871
:1022E000490050EAC12018BF04204A0D18BF40F031
:1022F000010040F2FF72B2EB515F08BF40F00200F4
:10230000012808BF052070470907090E002804DBD3
:1023100000F1E02080F80014704700F00F0000F199
:10232000E02080F8141D70472DE9F0414F1E00EBAE
:10233000C7010446D1E9000115461E4637F00602E2
:102340000DD02A463346FEF733F87F1E04EBC70351
:10235000D3E90023FDF785FF37F00602F1D1022F04
:1023600025D0042F13D0062F18BFBDE8F0812A46D0
:102370003346FEF71DF8D4E90A23FDF772FF2A461B
:102380003346FEF715F8D4E90823FDF76AFF2A461D
:102390003346FEF70DF8D4E90623FDF762FF2A461F
:1023A0003346FEF705F8D4E90423FDF75AFF2A4621
:1023B0003346FDF7FDFFD4E90223FDF752FF2A461D
:1023C0003346FDF7F5FFD4E90023BDE8F041FDF702
:1023D00048BF00000022134610460149FEF75AB8D4
:1023E0000000F03FFDF73DBF0022134610461146A6
:1023F000FEF750B840F2013200204FF0E041FEF706
:1024000047BA0000024A00201107FEF741BA000057
:1024100001FDFFFF02E008C8121F08C1002AFAD11F
:1024200070477047002001E001C1121F002AFBD154
:1024300070470000014908607047000088000020D4
:102440002DE9FF5F82B00021DDE90430020DDDF8E7
:1024500040B0034318D044F61050A2F2FF3242437A
:102460001514119801281FD0A5EB0B00401C5FEA42
:10247000000A4FF000064E4FDFF83891B046504644
:1024800015D5CAF1000413E0119801244AA30128CC
:1024900001D16FEA0B010298119AC0E90031C0E93D
:1024A000024206B0BDE8F09FCBF10000DFE7044632
:1024B0000021404A491842EB0450CDE9001012E0D7
:1024C000E00707D032463B4640464946FDF770FFDD
:1024D0008046894632463B4610461946FDF768FF5E
:1024E00006460F466410002CEAD1DDE90401DDE95F
:1024F0000023BAF1000F06DAFDF75AFF42464B46B9
:10250000FDF756FF05E0FDF7C5FF42464B46FDF7D8
:10251000C1FF04460E460022284BFEF7E9F903D816
:102520004FF0FF30014607E00022254B20463146A0
:10253000FDF797FEFEF7C3F9102409E0002C0ADB33
:102540000A220023FEF7BEF8039B30321A55641EA0
:1025500050EA0102F2D1641C039AC4F1110314443D
:10256000119A012A03D0012208430DD10AE0084341
:1025700004D000204FF0110B119072E7A3EB0B0574
:102580006D1E0DE05B4504DD4FF0000205F1010515
:1025900004E003DA4FF00002A5F10105002AECD0B7
:1025A00002981199C0E90231C0E9004579E70000BD
:1025B000000014400000F03F300000000000F04335
:1025C0000000E03F2DE9FF4F95B09A468846064649
:1025D0000025EEE1252877D100242746F94A01217C
:1025E000039400E0044316F8013F203B01FA03F096
:1025F0001042F7D130782A2811D06FF02F033078AD
:10260000A0F13002092A16D8039A44F0020402EB22
:10261000820203EB42021044761C0390EFE758F865
:10262000042B0392002A03DA504244F4005403902E
:1026300044F00204761C30782E2816D116F8010FCB
:1026400044F004042A280DD06FF02F023078A0F156
:102650003003092B09D807EB870302EB4303C718A4
:10266000761CF3E758F8047B761C30786C280FD082
:1026700006DC4C2817D068280DD06A2814D104E055
:10268000742810D07A280FD10DE044F400140AE029
:1026900044F4801401E044F440147278824202D180
:1026A00004F58014761C761C307866280BD013DC79
:1026B000582877D009DC002875D04528F6D0462860
:1026C000F4D047281AD193E118E0632835D0642864
:1026D00079D0652812D18BE1702873D008DC672887
:1026E000F1D069286FD06E280DD06F2806D1ACE0EC
:1026F00073282CD0752874D0782853D05246179957
:1027000090476D1C54E1C4F30250022809D00328FD
:102710000DD0D8F8001004280DD00D6008F1040881
:1027200046E1D8F80010EA17C1E90052F6E7D8F8F8
:1027300000100D80F2E70D70F0E718F8041B8DF81B
:10274000001000208DF80100EB46012003E058F84E
:1027500004BB4FF0FF3061074FF0000102D40DE0E1
:1027600009F101018946B9420FDA8145F8DB1BF80E
:1027700009100029F4D108E009F1010189468142DC
:10278000FADB1BF809100029F6D103985346A0EB99
:10279000090721463846179A00F080FA284400EBD2
:1027A000090507E044E008E10DE01BF8010B524683
:1027B00017999047B9F10109F7D253462146384697
:1027C000179AF2E039E00A21C4F302524FF0000BED
:1027D0000091022A06D058F8040BC117032A09D029
:1027E0000AE023E008F1070020F00702F2E8020106
:1027F000904605E000B2C117042A01D140B2C117CA
:10280000002906DA0A460021404261EB02012D222E
:1028100002E0220504D52B228DF80420012203E0DA
:10282000E20701D02022F7E7914657E00A2100E0B5
:1028300010214FF0000B00910BE010214FF0000B26
:1028400044F004040827009103E008204FF0000B37
:102850000090C4F30252022A05D058F8040B00215C
:10286000032A08D008E008F1070020F00702F2E888
:102870000201904603E080B2042A00D1C0B24FF0BA
:10288000000922072AD53278702A07D0DDF800C067
:102890008CF0100C5CEA0B0C05D00EE040228DF899
:1028A0000420012208E050EA010306D030238DF80D
:1028B00004308DF8052002229146009B83F0080326
:1028C00053EA0B030AD150EA010201D1620705D590
:1028D00030228DF804204FF001097F1E3278582AEB
:1028E00004D039A20C920CAA02920BE03BA2F9E7A9
:1028F0005B46009AFDF7E6FE0C9B9B5C029A521E1B
:102900000292137050EA0102F2D1029804A9081A47
:1029100000F1200B600702D524F4803400E0012789
:102920005F4502DDA7EB0B0000E0002000EB0B0190
:10293000009003984944401A0390E00306D453469C
:102940002146179A039800F0A9F90544002706E0EC
:1029500001A85246C05D179990476D1C7F1C4F45DA
:10296000F6DBE0030CD553462146179A039800F096
:1029700095F9054404E030205246179990476D1CA4
:102980000099481E00900029F5DC08E002980299A1
:1029900052460078491C0291179990476D1CBBF173
:1029A0000001ABF1010BF1DC5BE100F065F90544DE
:1029B000761C307800287FF40DAE19B02846BDE8AB
:1029C000F08F0000092801003031323334353637BA
:1029D000383961626364656600000000303132336B
:1029E000343536373839414243444546000000000B
:1029F000600700D4062708F1070020F00700F0E880
:102A00000223804603F0004C5FEA0C0001D097A03F
:102A100009E0200501D596A005E0E00701D095A0CA
:102A200001E0AFF24C001390307823F000436528AA
:102A30000CD006DC452809D046281DD047287FD178
:102A40003BE0662818D067287AD136E00021112FA4
:102A500001DB112000E0781CCDE9000104A90CA8DD
:102A6000FFF7EEFCDDE90D010C9A4FF0000B07F1CA
:102A70000109109200914EE04FF000400097CDE91F
:102A8000011004A90CA8FFF7DBFCDDE90D020C9B8B
:102A90000F994FF0000B91461093009211B9791CD9
:102AA00000EB0109B7EB090003D4C0F1FF3B07F1CC
:102AB0000109A9EB0700019042E0012F00DA01278C
:102AC0000021112F01DD112000E03846CDE9000181
:102AD00004A90CA8FFF7B4FCDDE90D010C9A0091E4
:102AE0004FF0000BB946109221070FD4009A4A45C7
:102AF00003DA914601E0A9F10109B9F1010F05DD01
:102B0000109AA9F10101515C3029F4D0B84202DADF
:102B100010F1040F03DA0121CDE9011010E00028C3
:102B200003DC8344A9EB000102E0411C494500DDC0
:102B30008946A0EB0B00401C01904FF00040029032
:102B4000200705D40198484502DB4FF0FF30019083
:102B500000208DF84B0002980DF14B07B0F1004FAB
:102B600025D002200C902B200D90029800280CDA22
:102B7000404202902D200D9007E00A210298FDF7B7
:102B80008BFD3031029007F8011D0C99481E0C9006
:102B90000029F2DC02980028EFD1791E0D98087008
:102BA000307800F0200040F0450007F8020D11A831
:102BB000C01BC01D02901398007800B1012000EBEB
:102BC0000901019801EBE071029801440398401A51
:102BD000401E0390E00306D453462146179A0398FB
:102BE00000F05CF805441398007818B15246179924
:102BF00090476D1CE00323D553462146179A03984E
:102C000000F04CF805441BE0BBF1000F07DB009817
:102C1000584504DD1098179910F80B0001E017993A
:102C200030205246904701980BF1010B401E05F1F0
:102C30000105019004D12E205246179990476D1C32
:102C4000B9F10001A9F10109DEDC05E017F8010B7B
:102C50005246179990476D1C0299481E0290002910
:102C6000F4DC53462146179A03989EE62D00000097
:102C70002B000000200000002DE9F0410446002553
:102C80001E461746880404D405E039462020B04784
:102C90006D1C641EF9D52846BDE8F0812DE9F04190
:102CA000044600251E469046C80301D5302700E0A3
:102CB0002027880404D505E041463846B0476D1CFE
:102CC000641EF9D52846BDE8F0810A68531C0B60E4
:102CD00010707047F8B50546808C0C46762801D0F8
:102CE000772857D1012305F13202D021284601F07F
:102CF000CFF8E8BB95F83200582801D0602849D1B8
:102D0000B622E021284601F056F988BB01236A4625
:102D1000F321284601F0BCF80028F7D19DF8000007
:102D2000C007F3D1284601F015F8002833D095F8F4
:102D30003200602804D1284601F0BFF800282AD0CC
:102D400060796178400140EA8100C2B2F5212846ED
:102D500001F031F960B92078012801D100202070FC
:102D6000E078A178400140EA81002178084300E042
:102D700010E0C6B295F83200602805D12279F22120
:102D8000284601F018F928B93246F421284601F006
:102D900012F908B10020F8BD0120F8BD032101702F
:102DA000002242708170C1700171417170472DE93C
:102DB000FC41044690F8320090460F461E466028BB
:102DC00004D00EB100201860002602E00EB10823E6
:102DD00000E006236A46F721204601F059F810B1B9
:102DE0000020BDE8FC819DF800009DF8042001034F
:102DF0009DF80100238841EA00119DF80200B4F912
:102E0000025041EA10119DF80300000340EA02104D
:102E10009DF8052040EA1210C210A2EB4302C3EB5A
:102E200020104043B4F904306A430013D2125843CF
:102E300002EBA03505EB85008030001238602A4691
:102E4000204600F065F8C8F80000AEB3BDF80600F3
:102E5000E18B40BA8003A0EB0150A5F59635B4F99B
:102E60002010227F01FB150094F922106A43694368
:102E70004FF40043891203EBE22251439A0102EB23
:102E8000A121B4F91A2000F58040514301F5005109
:102E9000C01389134843C1134943227EC9115143CA
:102EA000B0EB211001D5002004E04FF0C85188425A
:102EB00000DD084600133060012092E7FEB51C00DB
:102EC00015460E4601D002AB00E0002301AA694678
:102ED000FFF76DFF002818D00098FDF74AFB0B495B
:102EE000FDF775F930600198FDF74CFB6FF00701B5
:102EF000FDF7ABF928603CB10298FDF743FB6FF09A
:102F00000901FDF7A2F920600120FEBD0000C842C2
:102F10002DE9F05F04468B465249D0175118A1FBAA
:102F20000182B4F9103040F1FF30A8FB039700FB99
:102F3000012201FB0022DE1702FB0373B4F90E50DD
:102F400008FB0633A5FB017CEE1706FB01C605FB5B
:102F500000656E0446EAD7367F0417EB09055E412B
:102F6000B4F90C304FF0000A1AEB050546EBC30923
:102F7000B4F90A30A8FB037C02FB03C24FEAE376F4
:102F800008FB0622B4F908304FEA1726A3FB01C854
:102F90004FEAE37707FB018103FB00104FEA0031A2
:102FA00046EA02664FEA0C3041EA1C51301841EB08
:102FB0002222001CE18842F50043A0FB016703FBCD
:102FC000017100FB0A104210C31752EA030047D0F8
:102FD000CBF58016F017C10741EA5601F607751BBD
:102FE00040F63547A5FB070C61EB090101FB07C162
:102FF000002605FB0611FDF797F8B4F91630420BD1
:1030000042EAC142A3FB027CDD1705FB02C54E1359
:1030100003FB0653A7FB025C03FB02C207FB06226D
:103020006B0E43EAC2135616B4F91420A2FB007CBF
:10303000D51705FB00C502FB0155FA0CC01842EA82
:1030400045327141801841EBE5414FEA102040EADA
:103050000160B4F912104FEA01114018BDE8F09F69
:103060000020FBE7000CFEFF8CB0FEF7A1FAFFF793
:1030700063F89748816941F020018161816901F01D
:1030800020010091816941F008018161816901F0AD
:1030900008010091816941F00401816180698D49D5
:1030A00000F0040000908C488C4F00240160C0E9BF
:1030B00001740E14C0E9034644618461C461046272
:1030C000FDF79EFF08B172B6FEE7834D8448543584
:1030D0002860C5E90174C5E903466C61AC61EC6127
:1030E00028462C62FDF78CFF08B172B6FEE77A48DD
:1030F0007C49A83001604FF41651C0E901140C213D
:10310000C460C0E904418461C461FEF763FD08B195
:1031100072B6FEE7FDF7F6FD73480746FFF73EFE81
:10312000714E76202C3E714CB084B5624FF47A75A6
:103130000FE06FA17648FFF7BFF882B27449228092
:103140002B4601F5D470FEF7AFFD4FF4FA60FDF7A2
:103150004FFE654839462C38FFF7BCFD0028E8D003
:1031600096F83200582832D000266AA26BA168482F
:10317000FFF7A2F882B2664922802B4601F5D4708F
:10318000FEF792FD5FF00007FDF76AFD6062002028
:10319000FDF752FCA0620020FDF726FCE062C8208B
:1031A000FDF726FE7F1C0A2FEEDB00BFFDF758FD62
:1031B000A0610020FDF740FCE0610020FDF714FC59
:1031C00020626420FDF714FE4FF4FA6711E0012637
:1031D00057A2CBE758A14E48FFF76EF882B24C4990
:1031E00022802B4601F5D470FEF75EFD3846FDF7D0
:1031F000FFFD3E4B3C481433A3F10C02191F2C3841
:10320000FFF75CFE0028E5D05549A068FCF7DFFF1A
:10321000E060FDF712FA0022524BFDF73BF9524AEB
:10322000524B00F0ABF80022514BFDF7BEF80022E4
:10323000504BFDF7BDF8FDF713FA60600090A069F0
:10324000FDF7FBF981468A46206AFDF7F6F90690FC
:103250008846E069FDF7F1F907468B462069FDF7DE
:10326000ECF9CDE904010098FDF7E7F9CDE9020199
:10327000A068FDF7E2F9CDE90001E06AFDF7DDF9AC
:10328000CDE90A9A069ACDE90828CDE9067B0B46D6
:10329000024639491E48FFF70FF882B21C492280C6
:1032A0002B4601F5D470FEF7FFFC5EB917A1184854
:1032B000FFF702F882B2164922802B4601F5D4703E
:1032C000FEF7F2FC4FF4FA70FDF792FD6EE7000096
:1032D00000100240005400408C010020A086010034
:1032E0000058004000380140A002002000000020EB
:1032F000424D5032383020696E697469616C697A68
:103300006174696F6E206661696C65640A00000013
:103310008C000020424D503238300000424D503277
:1033200038303A20666F756E642025730A000000FD
:10333000424D45323830000054656D7065726174DD
:103340007572652F70726573737572652072656131
:1033500064696E67206661696C65640A000000003C
:103360000000C84200AA8F406C45D9CC955BC83F8D
:103370000000F03F40A5E540904000082DE9F04DE9
:103380001D460C4698B0174621F0004123F000433B
:10339000002814BF4FF0010C4FF0000C0CEB440C54
:1033A000FE4A0CEB02064FEA620C66452BD33E0048
:1033B00018BF012606EB45061644F94A964222D369
:1033C000F84A53EA070C02D0944205D148B918B024
:1033D00000201146BDE8F08D002808BF4FF0000C1A
:1033E00001D04FF0010C0CEB440212F5001F0AD87B
:1033F000002F14BF4FF0010C4FF0000C0CEB4502F6
:1034000012F5001F07D918B03A462B462146BDE8F1
:10341000F04DFEF7E7BF0022DFF88CA3002CB8BF09
:10342000534526DADFF884C36345A8BF022220DAB9
:10343000DFF870C39C451CDCDFF874C30CEB235C25
:10344000BCF1140F08DDCCF1340627FA06FC0CFAA7
:1034500006F6BE420DD108E05FB9CCF1140623FA9E
:1034600006FC0CFA06F69E4203D10CF00102C2F1F2
:10347000020251EA000C19D1002D17DA002C18BFF6
:10348000022A01D0012A07D00220FEF7D3FF18B08C
:10349000BDE8F04DFEF79EBF0220FEF7CBFFFEF722
:1034A00099FF18B081F00041BDE8F08DB7F1000C34
:1034B0006CD1534525D104F1804212F5801201BF31
:1034C00000280020B74918B008BFBDE8F08DB54806
:1034D000884207DC002DA1BF6046294618B0BDE830
:1034E000F08D07E0281E05DA80F0004118B0604634
:1034F000BDE8F08DAF497944D1E9000118B0BDE8CD
:10350000F08DDFF8A0C2634525D1002D1FDA19B177
:10351000514512D1D8B909E0002840F0EC82A24A06
:10352000214618B062F31E01BDE8F08D002021464F
:1035300018B060F31E01BDE8F08D08DA18B023461C
:10354000BDE8F04D024600206146FCF7A3BF18B06D
:103550002146BDE8F08D514518DAB5F1804F0DD008
:10356000A5F1005CBCF1FF5C10D1B4F1000C0DDBE7
:1035700018B06146BDE8F04D00F0F7BC234618B026
:103580000246BDE8F04D1946FCF712BF060024F0D4
:10359000004C3BD1D9B1514533D1002C06DD002D73
:1035A000A1BF0020514618B0BDE8F08D002C01DD10
:1035B000002D1BDB002C13DA002D11DB012A4FF04C
:1035C000000014BF78497C4918B0BDE8F08D022A8C
:1035D00018BF002C0AD0012A08D1002C06DA0AE014
:1035E000002CB8BF002D11DA012A04D0002018B039
:1035F0000146BDE8F08D18B000204FF00041BDE855
:10360000F08DA1F14050B0F17F601AD0012000EBA5
:10361000E47050EA020421D0624C521E4FF0000BBD
:10362000104304BF4FF0000B644C654883427CDDBF
:10363000644A654893421FDD884217DB002D25DB75
:1036400037E0002C00DA4AB1022A0CBF01204FF00B
:10365000FF3018B0BDE8F04DFCF799BF0120FEF730
:10366000E9FE18B0BDE8F04DFEF7BEBE4D4A8A42F5
:1036700002DC002D0ADC1CE0814202DA002D18DA9F
:1036800004E0484B994220DD002D12DD0220FEF7B8
:10369000D1FEFEF7AFFE05460E46002253465846C1
:1036A0002146FCF785FE18B066F31E012846BDE8EA
:1036B000F08D0220FEF7BEFEFEF7A4FE0A4621466C
:1036C00018B062F31E01BDE8F08D0022304661465D
:1036D000FCF768FE80460E466FF00102FDF7D8F851
:1036E0004FF05532394BFCF760FE42463346FCF74B
:1036F0005FFE0022364BFCF758FE824642463346B8
:10370000049110461946FCF753FE5246049BFCF701
:103710004FFE8A4600904FF0C0422E4B4046314645
:10372000FCF746FE2C4A2B4B00E027E0CDE90601D2
:1037300051460098FCF73CFE82460191274A284BEF
:1037400040463146FCF734FE5246019BFCF72AFE08
:1037500082460B4602460591DDE90601FCF781FD34
:10376000DDE90623002688463046FCF71BFE52465C
:10377000059BFCF71AFE024600F07EB90020B1F569
:10378000801F07DA352230466146FDF781F806468C
:103790006FF0340000EB215024E00000FFFF1F0019
:1037A000FFFF0F000000F03F0000F07F00004043EB
:1037B00001FCFFFF8E0B00000000F0FF0000F0BFD7
:1037C0000000E0410000F043FFFFEF3F5555D53FBB
:1037D0000000E03F4715F73FFE822B6544DF5DF8B0
:1037E0000BAE543EA0F2FF300190C1F3130040F045
:1037F0007F6141F040510291FE498842D8BF0020CC
:1038000004DDFD498142C8BF012001DD0D9008E0C3
:1038100000200D900198401C01900298A0F58010A6
:1038200002900299F54878440B910D9900EBC10084
:10383000D0E900230F9330460A920B99FCF7B2FDB2
:10384000CDE90601DDE90A2130460F9BFCF709FDB1
:1038500002460B460020EA49FCF71CFE0591024691
:103860000B460090DDE90601FCF7A2FD1490E54847
:103870008A464FF0000878440299006812904FF091
:10388000005040EA61010D980F9B01EB804000F56C
:10389000002109910A9A1298FCF784FD32460B9B8D
:1038A000FCF783FD42465346FCF782FD0646029133
:1038B00040465146099B129AFCF77AFDDDE9062342
:1038C000FCF773FD3246029BFCF76CFD059B009AEA
:1038D000FCF76EFD0091149A049053461046194669
:1038E000FCF766FD06460246C7480B4602910621D4
:1038F0007844FEF719FDCDE90510029B32461046CB
:103900001946FCF755FDDDE90532FCF751FD05913F
:103910000646534640461946149AFCF7A2FC009B03
:10392000049AFCF745FD3246059BFCF79AFCCDE96D
:1039300005104246534610461946FCF739FD002251
:10394000B24B02910A90FCF78CFCDDE90532FCF7E2
:1039500088FC0E464246AD4B4046FCF723FD029BD9
:103960000A9AFCF71FFDDDE90532FCF71EFD424611
:1039700002910A90334610465146FCF719FDCDE9F5
:1039800006015346149A02990A98FCF711FD8A46DB
:1039900002903346424600990498FCF709FD5346CD
:1039A000029AFCF75EFC82460B4602460591DDE971
:1039B0000601FCF756FCDDE9062300208846064692
:1039C000FCF7F0FC5246059BFCF7EFFC82460991A0
:1039D0004FF060428E4B30464146FCF7E9FC0490C4
:1039E00006918C4A8A4B50460999FCF7E1FC8246C5
:1039F0000291894A894B30464146FCF7D9FC524630
:103A0000029BFCF72EFC864B7B440D9A03EBC20312
:103A1000D3E90023FCF725FC0E9007910198FCF7F1
:103A2000B6FD0591DDE9061382460E9A0498FCF76F
:103A300018FC7C4A7A440D9B02EBC303D3E90023B4
:103A400000930292FCF70DFC5246059BFCF709FC23
:103A50000026884652463046059BFCF7A3FC009B97
:103A6000029AFCF79FFC069B049AFCF79BFC079BC1
:103A70000E9AFCF79AFC024600200B46029038464C
:103A80002946FCF795FC824601912B46384619469B
:103A9000029AFCF787FC32464346FCF789FC524603
:103AA000019BFCF7DEFB07468A4632464346294621
:103AB0000298FCF77DFC05460E463A465346FCF755
:103AC000D0FB594A8846914221DBA8EB020353EA16
:103AD000000210D12A463346FCF764FCCDE904010C
:103AE000524A534B38465146FCF7BBFBDDE90423F1
:103AF000FCF7FEFE21D20220FEF79CFCFEF77AFCCA
:103B00000A46214618B062F31E01BDE8F08D494B0C
:103B100028F000429A4210D3474A08EB020353EAC6
:103B200000027FF4C6AD2A463346FCF73BFC3A461A
:103B30005346FCF7DDFE7FF6BCAD0022019228F073
:103B400000403E493E4A01EB2051824223DA481CA4
:103B50004FF4801121FA00F040443A4AC0F30A5170
:103B60007A44394BA1F2FF31CB4020EA0303C0F382
:103B7000130040F48010C1F11401C8401268019094
:103B8000B8F1000FBCBF4042019028463146FCF717
:103B900009FC05460E462A46334638465146FCF790
:103BA00060FB4FF000084246284B40460591FCF769
:103BB000FFFBCDE90601264A264B40460599FCF756
:103BC000F7FB009102902A46334640460599FCF7E0
:103BD000E9FB3A465346FCF7E8FB1F4A1F4BFCF74C
:103BE000E7FB009B029AFCF73CFB0746884602462F
:103BF0000B4635E08E9803007AB60B00D60700001E
:103C00000000F03F0E0800003C07000000000840E4
:103C100009C7EE3FFD033ADCF5015B14E02F3EBE21
:103C200014060000D805000000009040FE822B65BD
:103C30004715973C00CC904000346F3F01FCFFFFDC
:103C40000000E03F24050000FFFF0F00432EE63F89
:103C5000396CA80C615C20BEEF39FAFE422EE63FBB
:103C6000DDE90601FCF7FDFADDE9062305460E460F
:103C7000FCF798FB3A464346FCF797FB0F462A466B
:103C80003346009010461946FCF792FB82460246E6
:103C90002E4888460B4605217844FEF745FB5246E0
:103CA0004346FCF785FB2A463346FCF77EFB8046FD
:103CB0008A463B4628463146009AFCF779FB3B464C
:103CC000009AFCF7CEFA0691009000224FF0804354
:103CD00040465146FCF766FB0F460C904246534661
:103CE00028463146FCF764FB3B460C9AFCF7D2FBB6
:103CF000069B009AFCF756FB2A463346FCF752FB1C
:103D00000022134BFCF751FB054601980E4601EBD0
:103D100000510815002810DC28463146019AFCF7AE
:103D2000B7FDFEF7DDFA042808BFFEF76BFB284657
:103D30003146019AFCF7ACFD05460B4618B02A4601
:103D400058462146BDE8F04DFCF732BBC4030000E5
:103D50000000F03F10B504460246882100F0E9F863
:103D600000284DD0A21C8A21204600F0E2F8E8B3DA
:103D7000221D8C21204600F0DCF8B8B3A21D8E2154
:103D8000204600F0D6F888B304F1080290212046BE
:103D900000F0CFF850B304F10A029221204600F05F
:103DA000C8F818B304F10C029421204600F0C1F8C1
:103DB000E0B104F10E029621204600F0BAF8A8B155
:103DC00004F110029821204600F0B3F870B104F11C
:103DD00012029A21204600F0ACF838B104F1140226
:103DE0009C21204600F0A5F800B100E008E004F1B5
:103DF00016029E21204600F09CF808B1012010BD5B
:103E0000002010BD00B589B0182103A8FCF7D4F933
:103E10004FF0FF33162103A88DE80B00AA220123DF
:103E2000EE211948FDF7B0F9BDF80C0041BA17486A
:103E30000180BDF80E1049BA4180BDF8101049BA92
:103E40008180BDF8121049BAC180BDF8141049BA7A
:103E50000181BDF8161049BA4181BDF8181049BA60
:103E60008181BDF81A1049BAC181BDF81C1049BA48
:103E70000182BDF81E1049BA4182BDF8201049BA2E
:103E8000818209B000BD00008C01002030000020BC
:103E90003EB514460A46818C4FF6FF75CDE90043C6
:103EA00005EA410141F288350295806A0123FDF758
:103EB0006BF9002800D001203EBD1CB5044601234B
:103EC00000F11802A121FFF7E3FF10BB04F11A0271
:103ED000E121204600F02DF8D8B1012304F11C02A5
:103EE000E3212046FFF7D4FF98B96A46E421204633
:103EF00000F01FF868B101AAE521204600F019F88A
:103F000038B1012304F12202E7212046FFF7C0FF68
:103F100008B100201CBDBDF80000C1B2C0F30320F1
:103F200040EA0110E083BDF804000009208401206C
:103F30001CBD7FB51446828C4FF6FF7303EA420521
:103F400041F28836022303AA8DE84C000A46806AB3
:103F500001232946FDF718F910B1002004B070BD07
:103F6000BDF80C0020800120F8E72DE9F04106465D
:103F70000F46FCF7E7FC041E0D4618BF012028433E
:103F800020F00040C0F17F6000F1E040C00F0ED093
:103F9000301C18BF0120384320F00040C0F17F6082
:103FA00000F1E040C00F04BF0120FEF743FA2046B5
:103FB0002946BDE8F08137B5828C4FF6FF7303EADE
:103FC000420484B042F21075012306AA8DE82C0049
:103FD0000A46806A2146FDF7FFF9002800D001203B
:103FE00007B030BD00000000000000000102030423
:103FF0000607080900000000010203040000000099
:10400000000000000000F03F000000000000F83F4A
:1040100000000000000000000000004003B8E23F84
:10402000000000000000000006D0CF43EBFD4C3E36
:10403000033333333333E33FFFAB6FDBB66DDB3F2B
:104040004D268F515555D53F01411DA96074D13F73
:1040500065DBC9934A86CD3FEF4E454A287ECA3F6D
:104060003E5555555555C53F93BDBE166CC166BFEF
:104070002CDE25AF6A56113FF16BD2C541BDBBBEE8
:10408000D0A4BE726937663E000000000000000048
:1040900062203D20252E32662C200A20424D5032CF
:1040A0003830200A2050726573737572653A202586
:1040B0002E32662050612C0A20416C74697475643C
:1040C000653A20252E3266206D2C0A2054656D70CD
:1040D000657261747572653A20252E326620432020
:1040E0002C200A2D2D2D2D2D2D2D2D2D2D2D2D2D31
:1040F0002D2D2D2D2D2D2D2D2D2D2D2D2D2D2D2DF0
:104100002D2D0A20424D50313830200A2050726542
:1041100073737572653A202566200A20416C7469B4
:10412000747564653A202566200A2054656D7072A6
:1041300061747572653A20252E3266200D0A0000E2
:1041400060410008000000208C00000014240008DA
:10415000EC4100088C0000201C060000242400080C
:10416000000000000000000000000000000000004F
:10417000000000000000000000000000000000003F
:10418000000000000000000000000000000000002F
:10419000000000000000000000000000000000001F
:1041A000000000000000000000000000000000000F
:1041B00000000000000000000000000000000000FF
:1041C00000000000000000000000000000000000EF
:1041D00000000000000000000100000010000000CE
:0C41E000000000000024F40000000000BB
:04000005080000ED02
:00000001FF
